{
  "contractName": "SimpleStorage",
  "abi": [
    {
      "anonymous": false,
      "inputs": [
        {
          "indexed": true,
          "internalType": "address",
          "name": "sender",
          "type": "address"
        },
        {
          "indexed": true,
          "internalType": "address",
          "name": "receiver",
          "type": "address"
        },
        {
          "indexed": false,
          "internalType": "uint256",
          "name": "amount",
          "type": "uint256"
        }
      ],
      "name": "PaymentSent",
      "type": "event"
    },
    {
      "inputs": [],
      "name": "storedData",
      "outputs": [
        {
          "internalType": "uint256",
          "name": "",
          "type": "uint256"
        }
      ],
      "stateMutability": "view",
      "type": "function",
      "constant": true
    },
    {
      "inputs": [
        {
          "internalType": "uint256",
          "name": "x",
          "type": "uint256"
        }
      ],
      "name": "set",
      "outputs": [],
      "stateMutability": "nonpayable",
      "type": "function"
    },
    {
      "inputs": [],
      "name": "get",
      "outputs": [
        {
          "internalType": "uint256",
          "name": "",
          "type": "uint256"
        }
      ],
      "stateMutability": "view",
      "type": "function",
      "constant": true
    },
    {
      "inputs": [
        {
          "internalType": "address payable",
          "name": "receiver",
          "type": "address"
        }
      ],
      "name": "payMoney",
      "outputs": [],
      "stateMutability": "payable",
      "type": "function",
      "payable": true
    }
  ],
  "bytecode": "0x608060405234801561001057600080fd5b506102fa806100206000396000f3fe60806040526004361061003f5760003560e01c80630a96757b146100445780632a1afcd91461006057806360fe47b11461008b5780636d4ce63c146100b4575b600080fd5b61005e6004803603810190610059919061020a565b6100df565b005b34801561006c57600080fd5b5061007561018e565b6040516100829190610250565b60405180910390f35b34801561009757600080fd5b506100b260048036038101906100ad9190610297565b610194565b005b3480156100c057600080fd5b506100c961019e565b6040516100d69190610250565b60405180910390f35b8073ffffffffffffffffffffffffffffffffffffffff166108fc349081150290604051600060405180830381858888f19350505050158015610125573d6000803e3d6000fd5b508073ffffffffffffffffffffffffffffffffffffffff163373ffffffffffffffffffffffffffffffffffffffff167fd52bd61f7c422d441e024604f4517878fd3305d6acf0fe37baef23ed21af6bc9346040516101839190610250565b60405180910390a350565b60005481565b8060008190555050565b60008054905090565b600080fd5b600073ffffffffffffffffffffffffffffffffffffffff82169050919050565b60006101d7826101ac565b9050919050565b6101e7816101cc565b81146101f257600080fd5b50565b600081359050610204816101de565b92915050565b6000602082840312156102205761021f6101a7565b5b600061022e848285016101f5565b91505092915050565b6000819050919050565b61024a81610237565b82525050565b60006020820190506102656000830184610241565b92915050565b61027481610237565b811461027f57600080fd5b50565b6000813590506102918161026b565b92915050565b6000602082840312156102ad576102ac6101a7565b5b60006102bb84828501610282565b9150509291505056fea2646970667358221220a37fa5cf5a606fc136934d0174b6227acf6a86d56eac38ce7f4f36e8d5b0329064736f6c634300080d0033",
  "immutableReferences": {},
  "source": "// SPDX-License-Identifier: MIT\npragma solidity ^0.8.0;\n\ncontract SimpleStorage {\n    uint256 public storedData;\n\n    event PaymentSent(address indexed sender, address indexed receiver, uint256 amount);\n\n    function set(uint256 x) public {\n        storedData = x;\n    }\n\n    function get() public view returns (uint256) {\n        return storedData;\n    }\n\n    function payMoney(address payable receiver) external payable {\n    // Transfer ether to the receiver account\n    receiver.transfer(msg.value);\n\n    // Optionally emit an event or update contract state\n    emit PaymentSent(msg.sender, receiver, msg.value);\n}\n}",
  "sourcePath": "/Users/eliassafo/WebstormProjects/SmartContractDeploy/contracts/SimpleStorage.sol",
  "compiler": {
    "name": "solc",
    "version": "0.8.13+commit.abaa5c0e.Emscripten.clang"
  },
  "schemaVersion": "3.4.16",
  "updatedAt": "2024-05-13T20:54:31.524Z",
  "networkType": "ethereum",
  "devdoc": {
    "kind": "dev",
    "methods": {},
    "version": 1
  },
  "userdoc": {
    "kind": "user",
    "methods": {},
    "version": 1
  }
}